:020000040800F2
:100000002007002075030008790100087B01000823
:100010007F0100088301000887010008000000003C
:100020000000000000000000000000008B0100083C
:100030008D010008000000008F01000891010008F8
:100040008F0300088F0300088F0300088F03000848
:100050008F0300088F0300088F0300088F03000838
:100060008F0300088F0300088F0300088F03000828
:100070008F0300088F0300088F0300088F03000818
:100080008F0300088F0300088F0300088F03000808
:100090008F0300088F0300088F0300088F030008F8
:1000A0008F0300088F0300088F0300088F030008E8
:1000B0008F030008E9250008C92400088F03000801
:1000C0008F0300088F0300088F0300088F030008C8
:1000D0008F030008231F00088F0300088F03000808
:1000E0008F0300088F0300088F0300088F030008A8
:1000F0008F0300088F0300088F0300088F03000898
:100100008F0300088F030008072700088F030008EB
:100110008F0300088F0300088F0300088F03000877
:100120008F0300088F0300088F0300088F03000867
:10013000DFF80CD002F0DCFB004800474701000864
:1001400020070020704700240025002601F024FE2F
:100150004FF4165001F099FE02F0C0F805E0334666
:100160002A46214601A002F001FCF8E725642C2074
:1001700025642C2025640A00704700BFFEE700BFFD
:10018000FEE700BFFEE700BFFEE77047704770471D
:10019000704700000CB50020019000906C4800688A
:1001A00040F480306A49086000BF6948006800F484
:1001B000003000900198401C0190009818B90198F7
:1001C000B0F5A06FF1D16248006800F4003010B1C2
:1001D0000120009001E0002000900098012843D108
:1001E0005C48006840F010005A4908600846006802
:1001F00020F0030008600846006840F00200086034
:10020000534840685249486008464068486008467C
:10021000406840F4806048600846406820F47C10E4
:1002200048600846406840F4E810486008460068A6
:1002300040F08070086000BF4548006800F0007022
:100240000028F9D04248406820F003004049486047
:100250000846406840F00200486000BF3C484068E3
:1002600000F00C000828F9D10CBD10B5FFF792FF83
:1002700010BD10B53648006840F0010034490860F0
:1002800008464068344908403149486008460068DB
:10029000324908402E4908600846006820F4802052
:1002A00008600846406820F4FE0048604FF41F00D4
:1002B0008860FFF7DAFF4FF000602949086010BD41
:1002C00010B5002100200022214B5B6803F00C01D7
:1002D00021B1042906D0082928D107E0214B224C5E
:1002E000236027E01F4B204C236023E0184B5B6802
:1002F00003F47010164B5B6803F48032022303EBA7
:10030000904022B9194B4343174C23600DE0104B2A
:100310005B6803F4003323B1144B4343124C236056
:1003200003E0104B4343104C236003E00D4B0E4C95
:10033000236000BF00BF064B5B68C3F303130C4C84
:10034000E15C094B1B68CB40074C236010BD0000EB
:1003500000100240002002400000FFF8FFFFF6FE00
:1003600008ED00E000127A000000002000093D00C6
:10037000040000200648804706480047FEE7FEE7E5
:10038000FEE7FEE7FEE7FEE7FEE7FEE7FEE7FEE745
:10039000730200083101000831490143314A1160FC
:1003A000704770B5002100230F22C47804B32D4C90
:1003B000246804F4E064C4F5E064210AC1F1040394
:1003C000CA40447804FA03F18478144021430901B7
:1003D000254C0678A155047804F01F050124AC4093
:1003E00005786D11AD0005F1E025C5F8004109E083
:1003F000047804F01F050124AC401C4D06787611EA
:1004000045F8264070BD1A4A0A400243154B1B1F8F
:100410001A60704739B1134A121D12680243114B1A
:100420001B1D1A6006E00F4A121D126882430D4B15
:100430001B1D1A607047042808D14FF0E02109699C
:1004400041F004014FF0E022116107E04FF0E0219C
:10045000096921F004014FF0E022116170470000AA
:100460000000FA050CED00E000E400E080E100E0AF
:1004700080FFFF1F10B50446CC48844208D10121FB
:10048000042000F02DFB0021042000F029FB46E0B1
:10049000C748844208D10121082000F021FB002137
:1004A000082000F01DFB3AE0C248844208D1012137
:1004B000102000F015FB0021102000F011FB2EE0B1
:1004C000BD48844208D10121202000F009FB002111
:1004D000202000F005FB22E0B848844208D1012129
:1004E000402000F0FDFA0021402000F0F9FA16E06B
:1004F000B348844208D10121802000F0F1FA0021A4
:10050000802000F0EDFA0AE0AE48844207D10121D4
:10051000801500F0E5FA0021A01500F0E1FA10BD09
:1005200010B50121084600F0DBFA0021012000F09F
:10053000D7FA10BD2DE9F041024600250026002023
:1005400000230024002791F803C00CF00F0591F858
:1005500003C00CF0100CBCF1000F03D091F802C0E6
:100560004CEA050591F800C0BCF1000F31D01468C9
:1005700000202BE04FF0010C0CFA00F3B1F800C0A2
:100580000CEA03069E4220D183004FF00F0C0CFAB8
:1005900003F7BC4305FA03FC4CEA040491F803C0DA
:1005A000BCF1280F06D14FF0010C0CFA00FCC2F888
:1005B00014C00AE091F803C0BCF1480F05D14FF018
:1005C000010C0CFA00FCC2F810C0401C0828D1D362
:1005D0001460B1F800C0BCF1FF0F34DD5468002096
:1005E0002EE000F1080C4FF0010808FA0CF3B1F806
:1005F00000C00CEA03069E4221D183004FF00F0C8D
:100600000CFA03F7BC4305FA03FC4CEA040491F826
:1006100003C0BCF1280F05D100F1080C08FA0CF852
:10062000C2F8148091F803C0BCF1480F07D100F163
:10063000080C4FF0010808FA0CF8C2F81080401CB2
:100640000828CED35460BDE8F0814FF6FF710180D9
:10065000022181700421C170704702460020936816
:100660000B400BB1012000E0002070470146886874
:1006700080B2704702460020D3680B400BB10120C6
:1006800000E0002070470146C86880B270470161F1
:100690007047416170470AB1016100E041617047F4
:1006A000C16070474FF480320A4382618161826188
:1006B00082698269704702460020434B18684FF6F2
:1006C0008073184040EA021008433F4B186070479F
:1006D0003E49C8617047F0B50A4600230024002156
:1006E000002500F00046B6F1004F02D1364EF16908
:1006F00001E0354E7168C0F3034583B200F4401643
:10070000B6F5401F08D121F070612F4E766826F0B3
:1007100070662D4F7E6012E000F48016B6F5801FE3
:1007200006D1032606FA05F4A14341F0706106E004
:10073000460D360103FA06F6B14341F0706122B16D
:10074000460D360103FA06F6314300F00046B6F1D5
:10075000004F02D11C4EF16101E01B4E7160F0BDF3
:1007600030B500228B071C0F0F2303FA04F2164B3F
:1007700008338C1053F824309343134C08348D10F5
:1007800044F8253023468C1053F824308C07240F6E
:1007900000FA04F423430C4C08348D1044F825303F
:1007A00030BD0A49DC310860704700000008014094
:1007B000000C0140001001400014014000180140ED
:1007C000001C0140002001400000014000002042C8
:1007D000DF48006840F00100DD49086008464068D5
:1007E000DC490840DA49486008460068DA490840B0
:1007F000D74908600846006820F480200860084651
:10080000406820F4FE0048604FF41F008860704785
:10081000CF49096821F48031CD4A11601146096839
:1008200021F480211160B0F5803F03D0B0F5802F16
:100830000ED106E0C649096841F48031C44A11600E
:1008400007E0C349096841F4A021C14A116000E0F2
:1008500000BF00BF704710B50146002200230020F2
:100860004A11012A02D1BA4C236806E0022A02D1B9
:10087000B74C236A01E0B64C636A01F01F02012401
:1008800094401C400CB1012000E0002010BD38B5A0
:10089000002000900024002500BF3120FFF7DBFF7F
:1008A00005460098401C00900098B0F5A06F01D05C
:1008B000002DF2D03120FFF7CEFF08B1012400E077
:1008C0000024204638BD01460020A14A106820F0CF
:1008D000F80040EAC10010607047A0490860704706
:1008E000024600209A4B586820F47C1042EA01032B
:1008F0001843974B586070479849086670470146FF
:100900000020934A506820F003000843506070476D
:100910008F48406800F00C007047014600208C4A68
:10092000506820F0F00008435060704701460020F6
:10093000874A506820F4E0600843506070470146E1
:100940000020834A506820F4605040EAC1005060A3
:10095000704729B17E4A527A02437D4B5A7204E0B5
:100960007B4A527A82437A4B5A7270477B49D8311C
:100970000860704701460020754A506820F44040E6
:100980000843506070470021714A20321170704A4C
:1009900082F82010012802D004280AD104E00121A5
:1009A0006B4A2032117005E00521694A203211702E
:1009B00000E000BF00BF70476949086070476449A4
:1009C000096A0143624A1162704765494439086007
:1009D000704730B500210022002400235C4D6D6873
:1009E00005F00C0121B1042905D0082923D105E027
:1009F0005C4D056022E05B4D05601FE0544D6D6865
:100A000005F47012524D6D6805F48034022505EB33
:100A100092421CB9544D554305600BE04C4D6D6836
:100A200005F400351DB1504D5543056002E04D4DB4
:100A30005543056002E04B4D056000BF00BF444DCB
:100A40006D6805F0F0010909484D6B5C0568DD40F3
:100A500045603F4D6D6805F4E061090A434D6B5CEC
:100A60004568DD4085603A4D6D6805F46051C90AFE
:100A70003E4D6B5C4568DD40C560354D6D6805F4E5
:100A80004041890B3A4D6B5CC568B5FBF3F50561D8
:100A900030BD29B12E4A526902432D4B5A6104E000
:100AA0002B4A526982432A4B5A61704729B1284A1E
:100AB00092690243264B9A6104E0254A9269824377
:100AC000234B9A61704729B1214AD2690243204BD6
:100AD000DA6104E01E4AD26982431D4BDA61704735
:100AE00029B11B4AD2680243194BDA6004E0184A64
:100AF000D2688243164BDA60704729B1144A1269F2
:100B00000243134B1A6104E0114A12698243104BED
:100B10001A61704712494039086070470F49C8642C
:100B200070470B49C87170470948406A40F08070AF
:100B300007494862704701460020054A92680A400A
:100B40000AB1012000E00020704701498872704717
:100B5000001002400000FFF8FFFFF6FE00004242D6
:100B60008004424200127A0000093D001400002077
:100B70002400002010B50446FE48844208D101211B
:100B8000C014FFF7ADFF0021E014FFF7A9FFC4E098
:100B9000B4F1804F08D101210846FFF7AEFF0021D4
:100BA0000120FFF7AAFFB8E0F348844208D10121F1
:100BB0000220FFF7A2FF00210220FFF79EFFACE01A
:100BC000EE48844208D101210420FFF796FF00215E
:100BD0000420FFF792FFA0E0E948844208D10121F8
:100BE0000820FFF78AFF00210820FFF786FF94E026
:100BF000E448844208D101211020FFF77EFF002144
:100C00001020FFF77AFF88E0DF48844208D10121F5
:100C10002020FFF772FF00212020FFF76EFF7CE00D
:100C2000DA48844208D101214014FFF759FF00211E
:100C30006014FFF755FF70E0D548844209D10121C7
:100C4000C804FFF74DFF00214FF40020FFF748FFD5
:100C500063E0D048844209D101210805FFF740FF35
:100C600000214FF48010FFF73BFF56E0CA48844252
:100C700009D101214805FFF733FF00214FF400108F
:100C8000FFF72EFF49E0C548844208D101214020EA
:100C9000FFF733FF00214020FFF72FFF3DE0C04862
:100CA000844208D101218020FFF727FF0021802006
:100CB000FFF723FF31E0BB48844208D101218015B2
:100CC000FFF71BFF0021A015FFF717FF25E0B6482F
:100CD000844209D101210804FFF702FF00214FF4EB
:100CE0008030FFF7FDFE18E0B048844209D10121B1
:100CF0004804FFF7F5FE00214FF40030FFF7F0FE47
:100D00000BE0AB48844208D101218804FFF7E8FEDC
:100D100000214FF48020FFF7E3FE10BD002202887F
:100D2000944B98420ED0994B98420BD0B0F1804F23
:100D300008D0914B984205D0904B984202D0904BEE
:100D4000984204D14FF68F731A404B881A438D4B4B
:100D5000984207D08C4B984204D04FF6FF431A407C
:100D6000CB881A4302808B8883850B880385814B4F
:100D700098420BD0854B984208D08B4B984205D0B7
:100D80008A4B984202D08A4B984201D10B7A038653
:100D900001238382704770B5002400220023058C54
:100DA0004FF6FE7635400584028C8388048B4FF61F
:100DB0008F752C40B51E2C400D882C43751E2A4083
:100DC0000D892A434D882A436A4DA8420BD06F4DA6
:100DD000A84208D0744DA84205D0744DA84202D054
:100DE000734DA84213D14FF6F7752A404D892A4317
:100DF0004FF6FB752A408D882A434FF6FF652B403E
:100E00004FF6FF552B408D892B43CD892B43838093
:100E10000483CD888586028470BD70B500240022CD
:100E20000023058C4FF6EF7635400584028C8388CD
:100E3000048B48F6FF752C404FF6FF452C400D887B
:100E40004FF6FF7606EA05252C434FF6DF752A405C
:100E50000D8906EA05152A434D8806EA05152A4339
:100E6000444DA84202D0494DA8421DD14FF67F758E
:100E70002A404D894FF6FF7606EA05152A434FF6BC
:100E8000BF752A408D8806EA05152A434FF6FF35BF
:100E90002B404FF2FF752B408D8906EA85052B43C9
:100EA000CD8906EA85052B4383800483CD88058799
:100EB000028470BD70B5002400220023058C4FF61B
:100EC000FF6635400584028C8388848B4FF68F75CE
:100ED0002C404FF6FC752C400D882C434FF6FF55E7
:100EE0002A400D894FF6FF7606EA05252A434D88EC
:100EF00006EA05252A431F4DA84202D0234DA842E9
:100F00001DD14FF2FF752A404D894FF6FF7606EA54
:100F100005252A434FF6FF352A408D8806EA052528
:100F20002A434EF6FF752B404DF6FF752B408D89F9
:100F300006EA05152B43CD8906EA05152B43838068
:100F40008483CD888587028470BD70B5002200231C
:100F50000024058C4EF6FF7635400584038C84888A
:100F6000828B48F6FF752A404FF6FF452A400D88D0
:100F700020E00000002C0140000400400008004078
:100F8000000C0040001000400014004000340140FC
:100F9000004C014000500140005401400018004046
:100FA000001C00400020004000400140004401407F
:100FB000004801404FF6FF7606EA05252A434DF624
:100FC000FF752B400D8906EA05352B434D8806EA4F
:100FD00005352B43FA4DA84202D0FA4DA84208D15C
:100FE0004BF6FF752C408D894FF6FF7606EA851586
:100FF0002C4384808283CD88A0F84050038470BD48
:10100000828B4FF2FF331A408283828B4FF6FF733D
:1010100003EA01231A4382837047F0B50C46154654
:10102000002200210026078C4EF6FF7C07EA0C0701
:101030000784828B018C4FF6FF7707EA043640F66F
:10104000FF473A404FF6FF7707EA05273A434FF646
:10105000FF7707EA03373A43D94FB8420ED0D94F4A
:10106000B8420BD0B0F1804F08D0D74FB84205D06E
:10107000D64FB84202D0D64FB84206D14DF6FF77D0
:10108000394046F48057394305E047F6FF57394069
:1010900044F48057394382830184F0BD828B4FF63C
:1010A000F3731A408283828B0A4382837047F0B5C0
:1010B0000C461546002200210026078C4FF6FF6CD7
:1010C00007EA0C070784828B018C4FF6FF7707EA4B
:1010D00004264FF60C773A404FF6FF7707EA0317DE
:1010E0002F433A43B64FB8420ED0B64FB8420BD05A
:1010F000B0F1804F08D0B44FB84205D0B34FB842DA
:1011000002D0B34FB84206D14FF6FF57394046F4EC
:101110008077394305E04FF2FF57394044F4807738
:10112000394382830184F0BD028B4FF2FF331A40B2
:101130000283028B4FF6FF7303EA01231A430283F3
:101140007047F0B50C461546002200210026078C9A
:101150004FF6EF7C07EA0C070784028B018C4FF6F1
:10116000FF7707EA041640F6FF473A404FF6FF774D
:1011700007EA03373A434FF6FF7707EA05273A4372
:101180008F4FB8420ED08F4FB8420BD0B0F1804F86
:1011900008D08D4FB84205D08C4FB84202D08C4F4A
:1011A000B84206D14FF6DF77394046F01007394391
:1011B00005E04FF65F77394044F01007394302836A
:1011C0000184F0BD028B4FF6F3731A400283028B49
:1011D0000A4302837047F0B50C46154600220021F1
:1011E000068C4FF6FE773E400684028B018C4FF64C
:1011F0000C7632407E1C06EA03162E433243704EB4
:10120000B0420ED06F4EB0420BD0B0F1804F08D03C
:101210006D4EB04205D06D4EB04202D06C4EB04221
:1012200006D14FF6FD76314044F00106314305E02A
:101230004FF6F576314044F00106314302830184D4
:10124000F0BD70B505460C465D4885420ED05D4840
:1012500085420BD0B5F1804F08D05B48854205D060
:101260005A48854202D05A48854200D100E000BF6A
:10127000208850B92389A28861882846FFF7ABFFF0
:10128000E1882846FFF79EFF25E0208804280AD140
:101290002389A28861882846FFF753FFE188284602
:1012A000FFF742FF17E0208808280AD12389A28887
:1012B00061882846FFF7FBFEE1882846FFF7EEFE2F
:1012C00009E02389A28861882846FFF7A6FEE18805
:1012D0002846FFF795FE70BD2DE9F04105460C4606
:1012E00000260127608808B9022600E00026A088B1
:1012F000012801D1022700E001272088A0B9238915
:10130000A28861882846FFF766FFE1882846FFF734
:1013100059FF23893A4631462846FFF712FFE188F4
:101320002846FFF701FF13E02389A2886188284639
:10133000FFF707FFE1882846FFF7F6FE23893A46C4
:1013400031462846FFF747FFE1882846FFF73AFF76
:10135000BDE8F0810A884B881A438B881A43CB88F2
:101360001A430B891A434B891A438B891A43A0F8F5
:10137000442070474FF6FF71818000210180C180B9
:101380004180017270470021018041808180C180CD
:10139000018141818181C1817047002101804180AB
:1013A000012181800021C1800181704700210180DD
:1013B00041808180C180018141818181704700002D
:1013C000002C0140003401400004004000080040AF
:1013D000000C004021B1028842F00102028004E0CA
:1013E00002884FF6FE731A400280704731B1B0F8A0
:1013F000442042F40042A0F8442005E0B0F8442024
:10140000C2F30E02A0F8442070471AB183890B433F
:10141000838102E083898B43838170478182704797
:1014200041EA0203A0F8483070471AB183890B43A0
:10143000838102E083898B438381704701894FF662
:10144000F8721140018170470A46002101894FF668
:101450008F73194011430181704730B504460D4622
:1014600029462046FFF7F0FF208940F00700208141
:1014700030BD2DE9F04104460D4616461F46602D4D
:1014800006D13B46012231462046FFF75AFE05E0D1
:101490003B46012231462046FFF79DFE2946204665
:1014A000FFF7D2FF208940F007002081BDE8F081DE
:1014B00030B50C4600210189C9B24FF6FF7505EA27
:1014C0000325154325432943018130BD2DE9F04112
:1014D00005460E4617469846002443463A4631468E
:1014E0002846FFF7E5FF2C894FF6F870044044F0DA
:1014F00007044FF68F70044044F070042C81BDE85F
:10150000F081F0B504460D4616461F463B4632466E
:1015100029462046FFF7CCFF208940F480402081F7
:10152000F0BD0185828270470A46002101884FF68E
:101530008F731940114301807047F0B50C46154672
:101540001E460021002200230189028B038C4FF6E6
:10155000F877394021434FF6FC473A4040F20117F3
:101560003A434FF6DD773B404FF6FF7707EA061721
:101570002F433B43018102830384F0BD0A460021CF
:10158000018B4FF68F7319401143018370470A4650
:101590000021018B48F6FF7319404FF6FF7303EAF1
:1015A00002231943018370470A460021818B4FF6BD
:1015B0008F7319401143818370470A460021818B44
:1015C00048F6FF7319404FF6FF7303EA02231943ED
:1015D0008183704721B1028842F08002028004E0DA
:1015E00002884FF67F731A400280704721B18288CB
:1015F00042F00402828004E082884FF6FB731A40B6
:101600008280704721B1828842F00802828004E023
:1016100082884FF6F7731A408280704721B1828822
:1016200042F00102828004E082884FF6FE731A4085
:10163000828070470A460021018B4FF6F7731940EC
:101640001143018370470A460021018B4FF2FF735B
:1016500019404FF6FF7303EA0223194301837047D1
:101660000A460021818B4FF6F7731940114381839D
:1016700070470A460021818B4FF2FF7319404FF6E5
:10168000FF7303EA02231943818370470A4600214E
:10169000018B4FF6FB7319401143018370470A46D3
:1016A0000021018B4FF6FF3319404FF6FF7303EA19
:1016B00002231943018370470A460021818B4FF6AC
:1016C000FB7319401143818370470A460021818BC7
:1016D0004FF6FF3319404FF6FF7303EA0223194315
:1016E000818370470A460021018B4FF67F731940B2
:1016F0001143018370470A460021018BC1F30E019B
:101700004FF6FF7303EA02231943018370470A4629
:101710000021818B4FF67F731940114381837047FD
:101720000A460021818BC1F30E014FF6FF7303EAD5
:1017300002231943818370470A460021018C4FF62A
:10174000FD7319401143018470470A460021018C42
:101750004FF6F77319401143018470470A46002180
:10176000018C4FF6DF7319404FF6FF7303EA021343
:101770001943018470470A460021018C4FF67F739C
:1017800019404FF6FF7303EA0213194301847047AF
:101790000A460021018C4FF6FF5319404FF6FF73A4
:1017A00003EA02231943018470470A460021018C91
:1017B0004FF2FF7319404FF6FF7303EA02231943F8
:1017C000018470470A460021018C4DF6FF731940D1
:1017D0004FF6FF7303EA023319430184704730B5B3
:1017E000002301248C40A3B2048C9C430484048C09
:1017F00002FA01F5ADB22C43048430BD30B50023AC
:1018000004248C40A3B2048C9C430484048C02FA0C
:1018100001F5ADB22C43048430BD70B50346002001
:1018200000241846183001258D40ACB21D8CA5430C
:101830001D8409B1082909D100EB6100056825F074
:10184000700505600568154305600EE00D1FC5F3C2
:101850004E052844056825F4E045056005684FF607
:10186000FF7606EA02263543056070BD21B1028885
:1018700042F00202028004E002884FF6FD731A4033
:101880000280704721B1028842F00402028004E025
:1018900002884FF6FB731A400280704721B182889C
:1018A00042F08002828004E082884FF67F731A4003
:1018B0008280704702884FF6F7731A4002800288D0
:1018C0000A430280704782884FF68F731A408280E5
:1018D00082880A438280704702894FF6F8731A4063
:1018E000028102890A430281704702894FF67F73A1
:1018F0001A40028102890A4302817047818470473D
:10190000818570478186704701877047818770475E
:10191000A0F84010704702884FF6FF431A4002803B
:1019200002880A43028070470146888E704701464C
:10193000088F70470146888F70470146B1F8400014
:1019400070470146888C70470146088D70470246F3
:101950000020138A0B400BB1012000E000207047EB
:10196000CA430282704730B502460020002300249B
:10197000158A05EA0103958905EA010413B10CB142
:10198000012000E0002030BDCA4302827047000001
:1019900010B50446FB48844209D101218803FFF7B2
:1019A0009FF800214FF48040FFF79AF832E0F648A4
:1019B000844209D101214804FFF79FF800214FF428
:1019C0000030FFF79AF825E0F048844209D1012160
:1019D0008804FFF792F800214FF48020FFF78DF87C
:1019E00018E0EB48844209D10121C804FFF785F8CB
:1019F00000214FF40020FFF780F80BE0E548844217
:101A000008D101210805FFF778F800214FF4801074
:101A1000FFF773F810BD2DE9F04786B005460E4676
:101A20000024A24600BFA1460027B08900B100BF34
:101A30002F462C8A4CF6FF700440F08804432C8219
:101A4000AC894EF6F3100440B0883189084371899F
:101A500008430443AC81AC8A4FF6FF400440B08990
:101A60000443AC8201A8FEF7B4FFC648874202D106
:101A7000DDF810A001E0DDF80CA0A88900F400401A
:101A800040B10AEBCA0000EB0A1031684900B0FB14
:101A9000F1F807E00AEBCA0000EB0A103168890090
:101AA000B0FBF1F86420B8FBF0F0040120096421D8
:101AB00001FB1089A88900F4004040B1322000EBFE
:101AC000C900B0FBF1F000F00700044308E0322049
:101AD00000EB09106421B0FBF1F000F00F000443AB
:101AE0002C8106B0BDE8F0874FF41651016000214B
:101AF0008180C18001810C21418100218181704759
:101B000010B502460020108A4FF2FF0318400B88E0
:101B10004C8823438C882343CC882343184310826A
:101B200010BD0021018041808180C180704721B1BA
:101B3000828942F40052828104E082894DF6FF736B
:101B40001A4082817047F0B5034600240026002524
:101B5000002040F66A17B94200D100BF1846C1F311
:101B6000421401F01F06012707FA06F5012C01D1E6
:101B70000C3004E0022C01D1103000E014301AB116
:101B800007682F43076002E00768AF430760F0BDB6
:101B90001AB1838A0B43838202E0838A8B43838258
:101BA0007047028A4FF6F0731A400282028A0A4393
:101BB0000282704782894FF2FF731A4082818289C4
:101BC0000A438281704721B1828942F002028281F8
:101BD00004E082894FF6FD731A4082817047028AC1
:101BE0004FF6DF731A400282028A0A43028270476C
:101BF00021B1028A42F48042028204E0028A4BF65A
:101C0000FF731A4002827047C1F308028280704756
:101C100001468888C0F308007047818941F00101BE
:101C200081817047028BD2B20283028B42EA012289
:101C300002837047028B02F47F420283028B0A43C5
:101C40000283704721B1828A42F02002828204E03E
:101C5000828A4FF6DF731A408282704721B1828AEE
:101C600042F01002828204E0828A4FF6EF731A403B
:101C70008282704721B1828A42F00802828204E0A7
:101C8000828A4FF6F7731A408282704721B18289A7
:101C900042F40042828103E08289C2F30E02828113
:101CA000704721B1828A42F40062828204E0828A13
:101CB0004FF2FF731A4082827047828A4FF6FB739D
:101CC0001A408282828A0A438282704721B1828AC4
:101CD00042F00202828204E0828A4FF6FD731A40CB
:101CE0008282704702460020B1F5007F00D100BF1C
:101CF00013880B400BB1012000E00020704701F475
:101D00000072B2F5007F00D100BFCA430280704765
:101D100070B50246002400230025002040F66A1614
:101D2000B14200D100BFC1F3421501F01F030126EB
:101D300006FA03F3012D02D19689334006E0022D05
:101D400002D1168A334001E0968A33400C120126F4
:101D500006FA04F41688344013B10CB1012000E0F7
:101D6000002070BD10B50022002340F66A14A14285
:101D700000D100BF0A1201249440A3B2DC430480C6
:101D800010BD000000380140004400400048004001
:101D9000004C00400050004010B56FF00400FEF70A
:101DA0004AFB2E4800682E49B0FBF1F02D4908701F
:101DB0000846007800EB4001C1EBC0104FF6FF7100
:101DC00001EAC0002849088010BD0146254A127862
:101DD0004A434FF0E0235A6100229A611A46126981
:101DE00042F001021A6100BF4FF0E022106900F0DA
:101DF00001021AB100F48032002AF5D04FF0E0223F
:101E0000126922F001024FF0E0231A6100229A6168
:101E100070470146144A12884A434FF0E0235A6142
:101E200000229A611A46126942F001021A6100BF4B
:101E30004FF0E022106900F001021AB100F4803284
:101E4000002AF5D04FF0E022126922F001024FF093
:101E5000E0231A6100229A61704700000000002010
:101E600000127A00280000202A000020014600BF4E
:101E7000704700BF494A128802F04002002AF9D098
:101E8000C2B2464B1B1D1A80704710B586B004467F
:101E9000012144F20400FEF709FE4FF40070ADF892
:101EA000140003208DF8160018208DF8170005A9DE
:101EB0003B48FEF73FFB4FF48060ADF81400042070
:101EC0008DF8170005A93648FEF734FB25208DF85C
:101ED000000003208DF801008DF8020001208DF82C
:101EE00003006846FEF75DFA01940020ADF8080093
:101EF000ADF80A00ADF80C00ADF810000C20ADF8FC
:101F00000E0001A92548FFF786FD012240F2255168
:101F10002248FFF718FE01212048FFF708FE06B00F
:101F200010BD10B540F225511C48FFF7F1FE10B36B
:101F30001A48FFF76DFEC4B21A48008800F400404A
:101F4000C8B91848008800F4804060B10A2C03D05A
:101F500000201449088020E01248008840F4004026
:101F60001049088019E00D2C06D10E48008840F475
:101F700080400C49088010E00A480088C0F30D003A
:101F800009490C5407480088401C06490880084647
:101F90000088C72801DD0020088010BD00380140FE
:101FA00000080140300000205802002070B50446AF
:101FB0000E4626B14021FE48FEF769FB03E04021B2
:101FC000FB48FEF766FB4FF48051FA48FEF761FBD1
:101FD00000251BE04FF40051F648FEF75AFB04F0D1
:101FE000800028B14FF40041F248FEF750FB04E0B6
:101FF0004FF40041EF48FEF74CFB4FF40051ED4821
:10200000FEF745FB6006040E681CC5B2082DE1DB37
:102010004FF48051E748FEF73AFB4021E448FEF7D1
:1020200036FB70BD70B504460D4605F1B001C8B26F
:102030000021FFF7BBFF102141EA14100021FFF738
:10204000B5FF04F00F0141F001000021FFF7AEFFE2
:1020500070BD10B500218D20FFF7A8FF00211420CE
:10206000FFF7A4FF0021AF20FFF7A0FF10BD10B5C0
:1020700000218D20FFF79AFF00211020FFF796FF27
:102080000021AE20FFF792FF10BD70B5002419E0CB
:1020900004F1B001C8B20021FFF788FF0021084613
:1020A000FFF784FF00211020FFF780FF002505E0E7
:1020B00001210020FFF77AFF681CC5B2802DF7DBF5
:1020C000601CC4B2082CE3DB70BD2DE9F04107466B
:1020D0000E46904600250024A8F12000C5B27F2FAF
:1020E00002DD0027B01CC6B231463846FFF79AFF22
:1020F000002408E004EB0511AF4A505C0121FFF712
:1021000055FF601CC4B2082CF4DB701CC1B2384609
:10211000FFF788FF002409E004EB05110831A64A07
:10212000505C0121FFF742FF601CC4B2082CF3DBB6
:10213000BDE8F08110B50246012000E050430B00DD
:10214000A1F10104E1B2F9D110BD2DE9FF5F07460D
:1021500091461D460E9E4FF0000A002433E0281BD6
:10216000401EC1B20A20FFF7E5FFB9FBF0F00A21DB
:10217000B0FBF1F201FB1208BAF1000F13D1681E97
:10218000A04210DDB8F1000F0BD1B34606EBDB71B6
:10219000491001FB0471C8B220220199FFF795FF95
:1021A0000FE04FF0010AB34606EBDB71491001FB6B
:1021B0000471C8B208F13001CAB20199FFF785FF76
:1021C00000BF601CC4B2AC42C9DBBDE8FF9F2DE973
:1021D000F04104460F46154600260EE0AA5D39463A
:1021E0002046FFF772FF04F10800C4B2782C02DD2C
:1021F0000024B81CC7B2701CC6B2A85D0028EDD17F
:10220000BDE8F0812DE9F04180460E4615460027D5
:1022100031464046FFF706FF00240AE0674A02EB1A
:102220008511085D0121FFF7C1FE781CC7B2601C53
:10223000C4B2102CF2DB701CC1B24046FFF7F2FEB4
:1022400000240CE06900491C5C4A02EB4111085D66
:102250000121FFF7ABFE781CC7B2601CC4B2102C82
:10226000F0DBBDE8F0812DE9F05F06460F469046B1
:102270001C46DDF828A04FF0000BE11704EB51716C
:10228000C910A4EBC10131B92046E11704EB51712B
:10229000C1F3C70506E02046E11704EB5171C910F0
:1022A000491CCDB23D4615E029463046FFF7BAFE3F
:1022B000B1460BE059460BF1010B1AF80100012160
:1022C000FFF774FE09F1010000F0FF09C145F1DBE1
:1022D000681CC5B2A542E7DBBDE8F09F08B5012147
:1022E0001820FEF7E3FB4020ADF8000010208DF829
:1022F000030003208DF8020069462D48FEF71AF905
:102300004FF47040ADF8000010208DF8030003205A
:102310008DF8020069462748FEF70CF94FF470412A
:102320002448FEF7B4F90021AE20FFF73FFE00215C
:102330000846FFF73BFE00211020FFF737FE002183
:102340004020FFF733FE00218120FFF72FFE002100
:10235000CF20FFF72BFE0021A120FFF727FE002151
:10236000C820FFF723FE0021A620FFF71FFE002153
:10237000A820FFF71BFE00213F20FFF717FE0021DA
:10238000D320FFF713FE00210846FFF70FFE0021C0
:10239000D520FFF70BFE00218020FFF707FE00216C
:1023A000D920FFF703FE0021F120FFF7FFFD07E032
:1023B00000100140000C0140282D000832000020D0
:1023C0000021DA20FFF7F2FD00211220FFF7EEFDD9
:1023D0000021DB20FFF7EAFD00214020FFF7E6FDAA
:1023E00000212020FFF7E2FD00210220FFF7DEFDA3
:1023F00000218D20FFF7DAFD00211420FFF7D6FD24
:102400000021A420FFF7D2FD0021A620FFF7CEFD7A
:102410000021AF20FFF7CAFD0021AF20FFF7C6FD66
:10242000FFF733FE00210846FFF7FCFD08BD000062
:1024300000B585B001210420FEF738FB01210420FE
:10244000FEF741FB10208DF813000120ADF81000BD
:1024500003208DF8120004A9CD48FEF76BF8282060
:102460008DF813000220ADF8100003208DF8120043
:1024700004A9C748FEF75EF84CF24F30ADF80400EF
:102480004720ADF800000020ADF80600ADF80200CE
:102490006946C048FEF742FC01221146BD48FEF7DE
:1024A000B4FF1E208DF80C0001208DF80D008DF872
:1024B0000E008DF80F0003A8FDF773FF0121B5484A
:1024C000FEF788FF05B000BD10B50121B148FFF748
:1024D0004AFA20B1B0480088401CAF490880012169
:1024E000AC48FFF751FA10BD10B50121A848FEF71E
:1024F000D0F80121A648FEF7CAF81420FFF765FCC2
:102500000121A348FEF7C5F800BF0221A048FEF74D
:10251000A4F80028F9D000209E492431088000BF8B
:1025200002219B48FEF799F80128F9D099482430F8
:1025300000889A4908600846006800F083F904465C
:10254000974900F041F9974908600846006810BDB6
:1025500000B585B001210420FEF7A8FA0121022070
:10256000FEF7B1FA10208DF813000420ADF810002A
:1025700003208DF8120004A98548FDF7DBFF282011
:102580008DF813000820ADF8100003208DF812001C
:1025900004A97F48FDF7CEFF4CF24F30ADF80400A0
:1025A0004720ADF800000020ADF80600ADF80200AD
:1025B00069467D48FEF7B2FB012211467A48FEF7D4
:1025C00024FF1D208DF80C0001208DF80D008DF8E2
:1025D0000E008DF80F0003A8FDF7E3FE01217248FD
:1025E000FEF7F8FE05B000BD10B501216E48FFF7FB
:1025F000BAF920B16D480088401C6C49088001215F
:102600006948FFF7C1F910BD10B504216048FEF715
:1026100040F804215E48FEF73AF81420FFF7D5FB96
:1026200004215B48FEF735F800BF08215848FEF743
:1026300014F80028F9D000205B492431088000BF3D
:1026400008215348FEF709F80128F9D056482430EC
:102650000088574908600846006800F0F3F804460F
:102660004F4900F0B1F8534908600846006810BDB2
:1026700000B585B001210420FEF718FA01210820D9
:10268000FEF721FA10208DF81300ADF8100003209A
:102690008DF8120004A93E48FDF74CFF28208DF864
:1026A00013002020ADF8100003208DF8120004A9BB
:1026B0003748FDF73FFF4CF24F30ADF8040047209C
:1026C000ADF800000020ADF80600ADF80200694644
:1026D0003948FEF723FB012211463748FEF795FEE5
:1026E00032208DF80C0001208DF80D008DF80E00C1
:1026F0008DF80F0003A8FDF754FE01212E48FEF7C8
:1027000069FE05B000BD10B501212B48FFF72BF97C
:1027100020B12A480088401C284908800121264809
:10272000FFF732F910BD10B510211948FDF7B1FFC0
:1027300010211748FDF7ABFF1420FFF746FB1021CF
:102740001348FDF7A6FF00BF20211148FDF785FFC4
:102750000028F9D0002018492431088000BF20212A
:102760000B48FDF77AFF0128F9D013482430008880
:10277000134908600846006800F064F804460849F8
:1027800000F022F80F4908600846006810BD0000FC
:1027900000080140000800403402002044020020EC
:1027A0000000684238020020000400403C02002083
:1027B0004802002040020020000C00404C02002093
:1027C000540200205002002030B480EA010202F0DE
:1027D000004530F0004221F0004013D090B1C30D0D
:1027E000D40DC2F31601C0F31600E41A41F400013F
:1027F00040F400027D34914201D3641C00E04900A2
:10280000002C02DA30BC002070474FF40000002397
:10281000914201D3891A034340084FEA4101F7D19D
:1028200051B1914202D14FF0004105E002D24FF088
:10283000010101E06FF0010103EBC450284430BCFA
:1028400000F01FB8C10F80EAE0700844CA07962361
:10285000002100F01FB830B50B46014600202022B1
:10286000012409E021FA02F59D4205D303FA02F59D
:10287000491B04FA02F52844151EA2F10102F1DCFD
:1028800030BD0029A8BF7047401C490008BF20F098
:102890000100704710B4B0FA80FC00FA0CF050EA66
:1028A000010404BF10BC704749B1CCF1200421FAE7
:1028B00004F411FA0CF118BF012121430843A3EBE2
:1028C0000C01CB1D4FEA00614FEA102042BF0020EF
:1028D00010BC704700EBC35010440029A4BF10BCCB
:1028E0007047401C490008BF20F0010010BC704731
:1028F000064C074D06E0E06840F0010394E807004D
:1029000098471034AC42F6D3FDF716FC1833000894
:102910003833000870B58C1810F8015B15F0070308
:1029200001D110F8013B2A1106D110F8012B03E068
:1029300010F8016B01F8016B5B1EF9D12B0705D470
:102940000023521E0DD401F8013BFAE710F8013BB9
:10295000CB1A921C03E013F8015B01F8015B521ED5
:10296000F9D5A142D8D3002070BD00000FB4054BAB
:1029700010B503A9044A029800F018F810BC5DF8DD
:1029800014FB0000731E00082C00002002E008C8A1
:10299000121F08C1002AFAD170477047002001E0D9
:1029A00001C1121F002AFBD1704700002DE9FF4F23
:1029B00089B09B460446002506E025280BD05A46E0
:1029C0000B999047641C6D1C20780028F5D10DB040
:1029D0002846BDE8F08F0027B8460122474900E0AD
:1029E000074314F8013F203B02FA03F00842F7D1F5
:1029F00020782E2819D114F8010F47F004072A284F
:102A00000ED06FF02F022078A0F1300109290CD8E8
:102A100008EB880102EB410100EB0108641CF2E7BE
:102A20000A98641C50F8048B0A9020780028CED0B5
:102A3000642808D0692806D075281ED05A460B99FC
:102A400090476D1C58E00A994FF00A0901C90A9194
:102A5000002802DA40422D2102E0390504D52B215D
:102A60008DF82010012103E0F90704D02021F7E7B9
:102A70008A4608AE0DE00021FAE70A994FF00A09EC
:102A800001C90A91F7E74946FFF7E5FE303106F83C
:102A9000011D0028F7D1ADEB060000F120097807F1
:102AA00001D44FF00108C84502DDA8EB090000E0A1
:102AB00000208046002706E008A85A46C05D0B9912
:102AC00090476D1C7F1C5745F6DB04E030205A46CA
:102AD0000B9990476D1CB8F10001A8F10108F5DCD5
:102AE00005E016F8010B5A460B9990476D1CB9F199
:102AF0000001A9F10109F4DC641C65E70928010063
:102B00000000000000000000002F0000000007008F
:102B1000070000147F147F1400242A7F2A12006209
:102B200064081323003649552250000005030000B5
:102B300000001C224100000041221C000014083E3D
:102B400008140008083E0808000000A06000000803
:102B50000808080800006060000000201008040257
:102B6000003E5149453E0000427F40000042615115
:102B70004946002141454B31001814127F100027AF
:102B800045454539003C4A49493000017109050372
:102B900000364949493600064949291E00003636A3
:102BA0000000000056360000000814224100001406
:102BB00014141414000041221408000201510906E3
:102BC00000324959513E007C1211127C007F494964
:102BD0004936003E41414122007F4141221C007F95
:102BE00049494941007F09090901003E4149497AA3
:102BF000007F0808087F0000417F4100002040411D
:102C00003F01007F08142241007F40404040007F88
:102C1000020C027F007F0408107F003E4141413ECC
:102C2000007F09090906003E4151215E007F091914
:102C300029460046494949310001017F0101003F11
:102C40004040403F001F2040201F003F4038403F91
:102C500000631408146300070870080700615149F5
:102C6000454300007F41410000552A552A55000088
:102C700041417F0000040201020400404040404006
:102C8000000001020400002054545478007F48449E
:102C9000443800384444442000384444487F0038D5
:102CA0005454541800087E0901020018A4A4A47CFE
:102CB000007F080404780000447D400000408084C8
:102CC0007D00007F102844000000417F4000007C10
:102CD00004180478007C080404780038444444381C
:102CE00000FC242424180018242418FC007C080468
:102CF000040800485454542000043F444020003C41
:102D00004040207C001C2040201C003C4030403CC7
:102D1000004428102844001CA0A0A07C0044645457
:102D20004C4414141414141400000000000000009B
:102D30000000000000000000000000F8000000009B
:102D4000000000333000000000100C06100C0600DC
:102D5000000000000000000040C07840C078400043
:102D6000043F04043F040400007088FC08300000A5
:102D7000001820FF211E0000F008F000E0180000FD
:102D800000211C031E211E0000F0088870000000B6
:102D90001E2123241927211010160E000000000008
:102DA0000000000000000000000000E01804020025
:102DB000000000071820400000020418E000000096
:102DC0000040201807000000404080F08040400094
:102DD0000202010F01020200000000F000000000EA
:102DE0000101011F010101000000000000000000BE
:102DF00080B0700000000000000000000000000033
:102E000000010101010101010000000000000000BB
:102E10000030300000000000000000008060180456
:102E2000006018060100000000E010080810E00033
:102E3000000F102020100F00001010F800000000FC
:102E40000020203F20200000007008080888700043
:102E500000302824222130000030088888483000C3
:102E60000018202020110E000000C02010F80000E3
:102E700000070424243F240000F80888880808007C
:102E80000019212020110E0000E010888818000091
:102E9000000F112020110E0000380808C838080063
:102EA0000000003F000000000070880808887000E3
:102EB000001C222121221C0000E010080810E00064
:102EC0000000312222110F00000000C0C0000000ED
:102ED0000000003030000000000000800000000012
:102EE000000080600000000000008040201008000A
:102EF00000010204081020004040404040404000D3
:102F000004040404040404000008102040800000AD
:102F10000020100804020100007048080808F000B2
:102F20000000003036010000C030C828E810E00082
:102F30000718272423140B000000C038E00000000D
:102F4000203C23020227382008F888888870000077
:102F5000203F202020110E00C0300808080838004B
:102F6000071820202010080008F808080810E000C2
:102F7000203F202020100F0008F88888E808100063
:102F8000203F20202320180008F88888E808100037
:102F9000203F200003000000C0300808083800006F
:102FA00007182020221E020008F808000008F80870
:102FB000203F210101213F20000808F808080000F7
:102FC0000020203F2020000000000808F80808002A
:102FD000C08080807F00000008F888C028180800A2
:102FE000203F20012638200008F8080000000000DB
:102FF000203F20202020300008F8F800F8F80800D2
:10300000203F003F003F200008F830C00008F808CB
:10301000203F200007183F00E01008080810E000DB
:103020000F10202020100F0008F808080808F000F2
:10303000203F210101010000E01008080810E00015
:103040000F18242438504F0008F8888888887000AA
:10305000203F2000030C302000708808080838004A
:103060000038202121221C00180808F80808180040
:103070000000203F2000000008F808000008F808C1
:10308000001F202020201F000878880000C8380872
:10309000000007380E010000F80800F80008F800EA
:1030A000033C0700073C0300081868808068180884
:1030B00020302C03032C30200838C800C838080002
:1030C0000000203F2000000010080808C838080051
:1030D0002038262120201800000000FE02020200F5
:1030E0000000007F40404000000C30C000000000A5
:1030F000000000010638C00000020202FE000000CD
:10310000004040407F000000000004020202040072
:1031100000000000000000000000000000000000AF
:103120008080808080808080000202040000000097
:10313000000000000000000000008080808000008F
:103140000019242222223F2008F80080800000007D
:10315000003F112020110E00000000808080000040
:10316000000E112020201100000000808088F8004F
:10317000000E112020103F20000080808080000081
:10318000001F222222221300008080F088888818E5
:103190000020203F202000000000808080808000F0
:1031A000006B94949493600008F800808080000085
:1031B000203F210000203F20008098980000000060
:1031C0000020203F20200000000000809898000090
:1031D00000C08080807F000008F8000080808000B0
:1031E000203F24022D302000000808F800000000D5
:1031F0000020203F20200000808080808080800090
:10320000203F20003F20003F808000808080000021
:10321000203F210000203F200000808080800000AF
:10322000001F202020201F008080008080000000E0
:1032300080FFA12020110E0000000080808080000F
:10324000000E112020A0FF80808080008080800000
:1032500020203F212000010000008080808080002D
:103260000033242424241900008080E080800000A2
:103270000000001F202000008080000000808000EF
:10328000001F202020103F20808080000080808050
:1032900000010E30080601008080008000808080E0
:1032A0000F300C030C300F00008080008080800005
:1032B0000020312E0E312000808080000080808030
:1032C00080818E70180601000080808080808000E0
:1032D0000021302C2221300000000000807C0202FE
:1032E00000000000003F404000000000FF00000020
:1032F00000000000FF0000000002027C80000000CF
:103300000040403F000000000006010102020404EA
:10331000000000000000000038330008000000201A
:103320005802000014290008303400085802002018
:10333000C80400009C2900081184A24A04680901FD
:10334000020304060708090C6910A5020406080018
:1033500010138080EE888888E88F088878484E406F
:10336000C0167F2424247F0008168140300F30418E
:1033700080051701E21CE037804020100C030E107E
:10338000030C304080402C101090010009121010E6
:10339000FF101011161018082060203F1010104068
:1033A0000D10102040F8601D828282FE044906093B
:1033B00011A01A80B9510217FF1F181610D0B89724
:1033C000840B1192947F11080D1120108C83804181
:1033D000462810284443C0114FFE02224282720543
:1033E0000213FE2FFF100806010E0504134E807F06
:1033F000080E114042445840C0FFC040504846406B
:103400007F1E2010080403BD0712030408102020AB
:1034100018088282BAAAAAAAAB040C10BA8282A0A7
:103420001C024154011A7C1F0637AAAAA082E1009F
:0400000508000131BD
:00000001FF
